:020000040000FA
:10000000D8052020D5000000D9000000DB0000004A
:1000100000000000000000000000000000000000E0
:10002000000000000000000000000000DD000000F3
:100030000000000000000000DF000000E100000000
:10004000E3000000E3000000E3000000E300000024
:10005000E3000000E3000000E3000000E300000014
:1000600000000000E3000000E300000000000000CA
:1000700000000000E3000000E3000000991C000005
:10008000E3000000E3000000E3000000E3000000E4
:10009000E3000000E300000000000000000000009A
:1000A000E3000000E300000000000000000000008A
:1000B000E300000000000000E3000000E300000097
:1000C0000348854600F034F900480047E92800005D
:1000D000D805202003480047FEE7FEE7FEE7FEE7DD
:1000E000FEE7FEE7C1000000D2B201E00270401C52
:1000F000491EFBD270470022F6E710B513460A46A8
:1001000004461946FFF7F0FF204610BD0EB505491D
:100110000291002100910A460B46019100F065F81A
:1001200003B000BD3304000070B5CD0F4A000903D1
:100130000123090B1B0519430B4BED070024520D3E
:100140009A4201DA002070BD074B34339A4203DC37
:100150009A1A00F02CF802E00449511888402C4308
:10016000F1D0404270BD0000FF030000CDFBFFFF57
:1001700070B50446002903D000202022012310E09E
:10018000002801D00020C043C046C0460DE02546EF
:10019000D5408D4205D30D469540641B1D469540C4
:1001A00040191546521E002DF1DC214670BD10B5D8
:1001B000202A04DB0846203AD040002110BD0B461F
:1001C000D340D0402024A21A91400843194610BDC4
:1001D00010B5002B08DA0024401C614192185B41E5
:1001E0001A4301D14008400010BDF0B51FB482B0E1
:1001F00005460C0003D0084602F038FD02E002F08C
:1002000035FD2030024600902146284600F0A8F82F
:10021000049B059A04460F4618431143084314D023
:10022000184610431BD0009840210A1A1846059919
:10023000FFF7BDFF05460E46009A0599049800F0A9
:100240008FF8084305D0012004E02046394607B066
:10025000F0BD0020C11705430E432C4337430099DE
:100260000E986305401A7905E40A00220C43FD0A42
:100270000A3002D500200146E9E70105101969415D
:100280000C9C0D9D00196941FFF7A2FFDFE7FEB549
:1002900000231A461B1A8A4103DB0020014603B0E3
:1002A000F0BD4A000D0301212D0B0905520D0D4330
:1002B000D10702D100186D41521E5110FF31FF319C
:1002C0000131002704463E46384600970191024618
:1002D000012100200905FFF76AFFC3197141F818D1
:1002E000324684468E464A4161462846611A90410C
:1002F00004D36046241A954176461F462419009877
:100300006D41401C00903428E1DDF9193046704100
:10031000091BA84103D20022D243134601E0002268
:10032000134601980105381C7141FFF751FFB6E7EC
:100330001CB5094800900948019005460126009C1B
:1003400005E0E36807CC33430C3C98471034AC42DB
:10035000F7D3FFF7B9FE0000DC640000FC64000086
:1003600010B5202A04DB0146203A9140002010BD40
:10037000914020239C1A0346E3401943904010BD4E
:10038000811E091F00BFFCD2704784B00390029108
:1003900001920398006800900098019988430090AA
:1003A00000980299019A114008430399086004B02B
:1003B000704782B0019000910098019995225201F6
:1003C000885002B0704782B0019000910098019966
:1003D00095225201885002B0704782B0019000917E
:1003E0000098019995225201885002B07047000090
:1003F00082B00190009100980199024A885002B0A1
:100400007047C046D012000081B0009000990120D2
:10041000C2025148885001B07047C04610B584B040
:10042000069C03900291019200930298019908435F
:100430000099084306990843034908430399890032
:10044000244A885004B010BD8100040081B000909F
:10045000009881001F4A8120885001B07047C04633
:1004600010B584B0069C039002910192009302980B
:1004700001990843009908430699084381210843DC
:1004800003998900134A885004B010BD81B00090D0
:10049000009881000F4A0020885001B07047C04684
:1004A00082B00190009100980349084301998900A6
:1004B000084A885002B070478000040082B0019062
:1004C000009100988021084301998900014A8850D1
:1004D00002B070470480424082B0019000910198C0
:1004E0002721C90140580099084002B07047000018
:1004F00081B000900099344A3448885001B0704768
:1005000082B00190009100980199074A885002B08A
:100510007047C04682B00190009100980199024A4C
:10052000885002B07047C0469012000081B0009021
:100530000099034A885801231843885001B0704736
:100540000411000081B0009000990120C202B84857
:10055000885001B07047C04601000026B0B5112296
:10056000120283580C4C1C400B894D881D438B791B
:100570002B430A4D1D402B1983508B88CC791C438B
:10058000097821435D239B001940801842689A43F3
:1005900089184160B0BDC04680CCFFFF7F330000AA
:1005A00081B000900098034940581021084000098C
:1005B00001B070471011000081B000900099E44A2A
:1005C000E448885001B0704704080000030000B1FF
:1005D00080B582B00190009101988F494018009930
:1005E000024AFFF7D2FE02B080BDC046FF03000002
:1005F00010B50122120383180C785C604978815091
:1006000010BD000080B584B000920A4601460098F3
:10061000039102A90A7001AA10700398EA4BC0184E
:100620000978127811433F22FFF7AFFE04B080BD76
:1006300082B00190684601700078019945229201CC
:10064000885002B070470000F0B584B00124220247
:10065000344B19680392914319606A490D686D041F
:10066000FCD5457E25409E69A64374199C612024D3
:10067000045D03252C40DE69AE433419DC611F4C58
:10068000256805262660466A37681F6276685E62BE
:1006900007262E402660C4697F252D02DE69AE4301
:1006A0006406640C3419DC6107684568826800924E
:1006B000C66802690192426902929A69104C14401C
:1006C0003A07120B2D03ADB2AA183243009D2D0735
:1006D0002D0D1543019A1543029A1543007E2843B8
:1006E000084A0240101998611868039A104318606C
:1006F00008688005FCD504B0F0BDC046001340403A
:100700008D00F0FF72FF0F00064908680122904338
:10071000086070470349086801221202904308608C
:100720007047C04608010B4081B001466846017021
:1007300000780249086001B07047C04608030B40CA
:1007400080B582B0014601A8018001880F20020215
:100750002B48FFF71AFE02B080BDC046F0B5124B21
:100760001D46083D2E680124A6432E60032636034D
:1007700030401F68B743381818601868FF26B04328
:10078000C9B24018186028682043286018682107FB
:10079000002A06D0084318601A480168C905FCD52C
:1007A000F0BD88431860F0BD10010B4080B582B0E9
:1007B000014601A80170017802480322FFF7E5FD18
:1007C00002B080BD00010B4080B582B0014601A897
:1007D000017001780A483022FFF7D7FD02B080BDD2
:1007E00007498860074802689202FCD5012212047A
:1007F0000B6813430B600168C906FCD57047C046FF
:1008000004010B4004020B4081B000900099024AA1
:100810000120885001B070470811000081B000909D
:1008200000990120C2028A48885001B07047C04632
:1008300001000026F0B5724A82183B4BC3180879B4
:100840004E793A4D3A4C002E23D0202804D005266C
:10085000F601002803D003E0364E002800D1882698
:10086000576F2F4037435767976F2F40374397672E
:10087000566B26405663966B264096630026566557
:1008800096658F26F6435F6837405F609F68374004
:100890009F608E79096820280BD0002819D1491E45
:1008A0005160D76E2F4088210F43D76617467037A7
:1008B00019E0491E5160D16E29401E4F3943D1665F
:1008C000116F294039431167012149071A4D174615
:1008D00009E049085160D76E2F400521C9010F4337
:1008E000D766174670373C682C400C433C60D16A91
:1008F0000F4C2140D162116B214011630021D16462
:1009000011658F21C943D46F0C40D4671C680C401B
:100910001C600643BD2030401168084B0B40C018D6
:10092000801C1060F0BDC0468418000024493E00C1
:100930008888FDFF01040000FFFFFFCF4000FFCFCC
:1009400081B000900099634A6348885001B07047B5
:1009500004080000030000B182B0019000910098EB
:10096000019911221202885002B0704710B5072376
:100970009B04194092008018024A84589C436118D5
:10098000815010BD3018000010B5029CA400001961
:1009900011431943014A815010BDC0465018000050
:1009A00092008018014A81507047C046101800001C
:1009B00010B50122120383180C789C604B78835089
:1009C0008978014A815010BD0C11000010B586B025
:1009D00001930B4601460198059104A90B8003ABD6
:1009E0001A8002AA10800598054C001909881B88F6
:1009F000194312881143034AFFF7C7FC06B010BD24
:100A00000418000080FF000081B0009000991120C0
:100A10000202885801231843885001B07047000033
:100A200082B001900091009B0199034A88581843B5
:100A3000885002B07047C0462810000081B0009076
:100A400000990120C2020248885001B07047C04698
:100A50000100002681B00090009881214901405892
:100A6000C0B201B070470000B0B511221202835825
:100A70000124A34383500B888C781C438B88234329
:100A8000094C1C408358094D1D40631983508B79D4
:100A9000CC791C43097A21437E231940801842688F
:100AA0009A4351184160B0BD18670000E798FDFFF8
:100AB00081B00090009802494058C0B201B0704720
:100AC0002411000081B000900099024A0248885029
:100AD00001B0704704080000030000B180B584B085
:100AE00003900291019203980B49401802990B4A16
:100AF000FFF74BFC03980A49401801993F22FFF782
:100B000044FC0399074A8818895801221140FFF7CD
:100B10003CFC04B080BDC04610110000FFFF000087
:100B2000141100000411000010B5012212038318F3
:100B30000C789C604978815010BD80B582B00190DE
:100B40000091019811210902401800990322D20353
:100B5000FFF71BFC02B080BD10B58AB00D9C0C9C49
:100B6000099008910792069300200590FFE70598E9
:100B70000C99884231D8FFE70C98404305994943C6
:100B8000401AFFF7C3FA02F0A5F8FFF7CDFA049078
:100B900005980290FFE7029805994942884217DBC1
:100BA000FFE70998029940180899049A891A0D9A42
:100BB00000F0C5F90998029940180899049A891813
:100BC0000D9A00F0BCF9FFE70298401E0290E2E7A0
:100BD000FFE70598401C0590C9E70C9841000320E9
:100BE000401A0390FFE70598049988425BDDFFE710
:100BF0000398002807D5FFE705988000039940185F
:100C0000801D03900BE005980499401A8000039919
:100C100040180A3003900498401C0490FFE70598A0
:100C2000401E0590059840420190FFE70198059904
:100C3000884217DCFFE70998019940180899049A3F
:100C4000891A0D9A00F07BF90998019940180899C2
:100C5000049A89180D9A00F072F9FFE70198401C78
:100C60000190E3E7049840420090FFE70098049960
:100C7000884217DCFFE70998059940180899009AFF
:100C800089180D9A00F05BF909980599401A08999E
:100C9000009A89180D9A00F052F9FFE70098401C5D
:100CA0000090E3E79FE70AB010BD80B584B00390E1
:100CB0000291019200932A2000F052FE039800F066
:100CC00037FE019800F034FE2B2000F049FE029818
:100CD000233000F02DFE0098233000F029FE2C2058
:100CE00000F03EFE04B080BD10B58AB00C9C0990A7
:100CF000089107920693042005900998059A801898
:100D0000089B07998A1A0C990091194600F091F8EE
:100D1000099A0898059BC1180698C31A0C98009068
:100D2000104600F086F80998059A8018069B0799E6
:100D30008A1A0C990091194600F07BF8079A0898D6
:100D4000059BC1180698C31A0C980090104600F035
:100D500070F80998059A8018089989180C9B0193D6
:100D600000925A220292B4230393FFF7F5FE029BEE
:100D70000798059A801A089989180C9C019400928A
:100D80000022FFF7E9FE039A0998059BC01806990F
:100D9000C91A0C9C0194009387235B000493FFF70E
:100DA000DBFE049A0798059BC01A0699C91A0C9C89
:100DB000019400932D23DB00FFF7CEFE0998059BDD
:100DC000C0180899079AD21ACB180C9C009400F00E
:100DD000C6F8079A059C101B08990919069B1B1B4E
:100DE0000C9C009400F0BBF80998059C0019069B28
:100DF000191B079A121B0C9C009400F0B0F809987C
:100E00000899059C09190219069B1B1B0C9C009450
:100E100000F0A5F80998059C001908990919079A86
:100E2000121B069B1B1B0C9C009400F098F80AB048
:100E300010BD10B58EB0109C0D900C910B920A93C2
:100E40000020089007900B980D99401A06900A9878
:100E50000C99401A05900D9801900C9800900698F6
:100E6000012803DBFFE7012003900EE0069800282D
:100E700003D1FFE70020039006E00020C043039069
:100E8000069840420690FFE7FFE70598012803DB3C
:100E9000FFE7012002900EE00598002803D1FFE74C
:100EA0000020029006E00020C043029005984042D6
:100EB0000590FFE7FFE706980599884203DDFFE705
:100EC0000698049002E005980490FFE7002009903E
:100ED000FFE709980499491C88422ED2FFE7019840
:100EE0000099109A00F02BF806990898401808907D
:100EF000059907984018079008980499884209DDD9
:100F0000FFE704990898401A08900399019840183F
:100F10000190FFE707980499884209DDFFE70499EB
:100F20000798401A07900299009840180090FFE730
:100F3000FFE70998401C0990CBE70EB010BD80B5C3
:100F400084B0039002910192039A029B10461946C5
:100F5000FFF7ABFE019800F0EBFC04B080BD10B5CC
:100F600086B0089C05900491039202930598049919
:100F7000039A521E029B5B1EFFF797FE0498019096
:100F8000FFE701980299884215D2FFE70598009083
:100F9000FFE700980399884208D2FFE7089800F01D
:100FA000C7FCFFE70098401C0090F2E7FFE70198BC
:100FB000401C0190E5E706B010BD000070B594B08C
:100FC00000920C46054600981A99199A189E139596
:100FD000129411AC0194207010930FA8029002702B
:100FE0000EAA11700AAA002103911170139907919A
:100FF000007841080CA8049001700178C808059099
:101000004907401C0029069001D105980690029BD3
:10101000049A0199069C187860430890119820382A
:1010200008701398129912788218521E1B78CB18E8
:101030005B1EFFF73AFE03980990FFE709980899AD
:10104000884200D39DE00FA800780C280BD1FFE761
:1010500011A800780C2141434E4840180999405C82
:101060000DA9087031E00FA8007810280AD1FFE719
:1010700011A800780101464840180999405C0DA963
:10108000087021E00FA8007818280BD1FFE711A8FD
:101090000078302141433D4840180999405C0DA932
:1010A000087010E00FA8007820280AD1FFE711A8E7
:1010B00000788101344840180999405C0DA90870F6
:1010C00000E05EE0FFE7FFE7FFE70BA90020087004
:1010D000FFE70BA8007807284EDCFFE70EA8007892
:1010E000002822D1FFE70DA800780BA90978C84095
:1010F000C007002804D0FFE7109800F019FC03E0B7
:10110000189800F015FCFFE70A98411C0AA8017026
:1011100000780CA90978FFF72BF8002904D1FFE724
:101120000AA90020087027E020E00DA800780BA98C
:101130000978C840C007002806D0FFE71398129925
:10114000109AFFF7FCFEFFE71398401C13901398CA
:101150000799401A0CA90978884206D1FFE7079839
:1011600013901298401C129006E0FFE7FFE70B98DF
:10117000401C0BA90870ACE7FFE70998401C0990D8
:101180005CE714B070BDC0465049000080370000D5
:10119000903100001C2D000070B58AB00C46054649
:1011A00010980F990E9E099508940792069305AA28
:1011B000117004A90870FFE70798007800287DD017
:1011C000FFE70798007880285DDBFFE705A8007837
:1011D0000C280FD1FFE709980899079A069B0E9CE7
:1011E00005AD2D7804AE367802960195009400F096
:1011F00067F83FE005A8007810280FD1FFE70998AD
:101200000899079A069B0E9C05AD2D7804AE36789A
:1012100002960195009400F021F92AE005A80078D3
:1012200018280FD1FFE709980899079A069B0E9C8A
:1012300005AD2D7804AE367802960195009400F045
:10124000DBF915E005A8007820280FD1FFE7099801
:101250000899079A069B0E9C05AD2D7804AE36784A
:1012600002960195009400F095FA00E026E0FFE771
:10127000FFE7FFE70798801C079005A80178099809
:101280004018099019E009980899079A1278069B66
:101290000E9C05AD03952D7804AE36780296019527
:1012A0000094FFF78BFE03980799491C079100787B
:1012B0004108099840180990FFE77DE70AB070BD22
:1012C00070B592B000920C46054600981899179A8E
:1012D000169E119510940F900E930DA802700CAAF3
:1012E000117009AA002101911170119905910178DD
:1012F0000291C80803904907401C0029049001D1BD
:101300000398049001980299049A5143069105218B
:1013100007910890FFE708980799884200D399E061
:1013200008981A2141434C48405C0F99097888423B
:1013300000D08AE008981A21414347484018407875
:101340000F994978884200D07FE0119810990DAA32
:101350001378C218521ECB185B1EFFF7A6FC0BA910
:1013600000200870FFE70BA80078069988426BD22E
:10137000FFE70AA900200870FFE70AA800780728FD
:101380005CDCFFE70CA80078002829D1FFE708986B
:101390001A214143304840180BA909784018807839
:1013A0000AA90978C840C007002804D0FFE70E98B2
:1013B00000F0BEFA03E0169800F0BAFAFFE70998C9
:1013C000411C09A8017000780DA90978FEF7D0FE2C
:1013D000002904D1FFE709A9002008702EE027E0CA
:1013E00008981A2141431C4840180BA90978401855
:1013F00080780AA90978C840C007002806D0FFE70E
:10140000119810990E9AFFF79AFDFFE71198401C6A
:10141000119011980599401A0DA90978884206D1B2
:10142000FFE7059811901098401C109006E0FFE728
:10143000FFE70A98401C0AA908709EE7FFE70B988F
:10144000401C0BA908708EE7FFE7FFE70898401CD7
:10145000089060E712B070BD8161000070B592B075
:1014600000920C46054600981899179A169E1195F9
:1014700010940F900E930DA802700CAA117009AA77
:101480000021019111701199059101780291C8080C
:1014900003904907401C0029049001D1039804904F
:1014A00001980299049A514306910B2107910890E3
:1014B000FFE708980799884200D399E0089822210D
:1014C00041434C48405C0F990978884200D08AE03B
:1014D0000898222141434748401840780F9949789D
:1014E000884200D07FE0119810990DAA1378C21895
:1014F000521ECB185B1EFFF7D8FB0BA9002008700B
:10150000FFE70BA80078069988426BD2FFE70AA98B
:1015100000200870FFE70AA8007807285CDCFFE7D6
:101520000CA80078002829D1FFE708982221414320
:10153000304840180BA90978401880780AA9097822
:10154000C840C007002804D0FFE70E9800F0F0F96B
:1015500003E0169800F0ECF9FFE70998411C09A890
:10156000017000780DA90978FEF702FE002904D168
:10157000FFE709A9002008702EE027E00898222143
:1015800041431C4840180BA90978401880780AA9E3
:101590000978C840C007002806D0FFE711981099C5
:1015A0000E9AFFF7CCFCFFE71198401C11901198A0
:1015B0000599401A0DA90978884206D1FFE70598D8
:1015C00011901098401C109006E0FFE7FFE70A9882
:1015D000401C0AA908709EE7FFE70B98401C0BA966
:1015E00008708EE7FFE7FFE70898401C089060E767
:1015F00012B070BD0362000070B592B000920C464C
:10160000054600981899179A169E119510940F90F8
:101610000E930DA802700CAA117009AA0021019165
:1016200011701199059101780291C808039049073A
:10163000401C0029049001D103980490019802995C
:10164000049A51430691032107910890FFE70898F7
:101650000799884200D399E008984A2141434C48B1
:10166000405C0F990978884200D08AE008984A21A6
:1016700041434748401840780F994978884200D044
:101680007FE0119810990DAA1378C218521ECB183A
:101690005B1EFFF70AFB0BA900200870FFE70BA8F1
:1016A0000078069988426BD2FFE70AA900200870EB
:1016B000FFE70AA8007807285CDCFFE70CA80078A1
:1016C000002829D1FFE708984A21414330484018B3
:1016D0000BA90978401880780AA90978C840C00782
:1016E000002804D0FFE70E9800F022F903E01698D6
:1016F00000F01EF9FFE70998411C09A80170007865
:101700000DA90978FEF734FD002904D1FFE709A9E6
:10171000002008702EE027E008984A2141431C4829
:1017200040180BA90978401880780AA90978C840A0
:10173000C007002806D0FFE7119810990E9AFFF70E
:10174000FEFBFFE71198401C119011980599401A73
:101750000DA90978884206D1FFE7059811901098E5
:10176000401C109006E0FFE7FFE70A98401C0AA91A
:1017700008709EE7FFE70B98401C0BA908708EE7E6
:10178000FFE7FFE70898401C089060E712B070BDC3
:101790007963000070B592B000920C46054600983F
:1017A0001899179A169E119510940F900E930DA8E4
:1017B00002700CAA117009AA0021019111701199EF
:1017C000059101780291C80803904907401C00293F
:1017D000049001D10398049001980299049A51430E
:1017E0000691012107910890FFE708980799884220
:1017F00000D399E00898822141434C48405C0F99FE
:101800000978884200D08AE00898822141434748FD
:10181000401840780F994978884200D07FE01198AD
:1018200010990DAA1378C218521ECB185B1EFFF731
:101830003CFA0BA900200870FFE70BA80078069976
:1018400088426BD2FFE70AA900200870FFE70AA8C8
:10185000007807285CDCFFE70CA80078002829D175
:10186000FFE7089882214143304840180BA90978C6
:10187000401880780AA90978C840C007002804D019
:10188000FFE70E9800F054F803E0169800F050F8C7
:10189000FFE70998411C09A8017000780DA9097893
:1018A000FEF766FC002904D1FFE709A900200870B3
:1018B0002EE027E00898822141431C4840180BA9DC
:1018C0000978401880780AA90978C840C00700281C
:1018D00006D0FFE7119810990E9AFFF730FBFFE74B
:1018E0001198401C119011980599401A0DA909787A
:1018F000884206D1FFE7059811901098401C10907F
:1019000006E0FFE7FFE70A98401C0AA908709EE777
:10191000FFE70B98401C0BA908708EE7FFE7FFE775
:101920000898401C089060E712B070BD5764000032
:1019300080B582B0019001A80090407800F026F8B0
:101940000098007800F022F802B080BD80B582B027
:10195000014601A80170007800F018F802B080BDBF
:1019600080B584B003A9009108700120C1020291E2
:10197000C6480190FEF731FD0098007800F006F8A7
:1019800001980299FEF7C6FD04B080BD80B584B011
:1019900003A900910870012081030291BB480190C6
:1019A000FEF71BFD0098007801F02AF801980299D3
:1019B000FEF7B0FD04B080BD80B58CB00920FEF705
:1019C00065FD0A20FEF762FD3A2007210291FEF72D
:1019D00075FD012005908106AB480390FEF708FDD8
:1019E00002993B20FEF76AFD03980599C906FEF7A8
:1019F000FFFC142002210691FEF760FD06991520D8
:101A0000FEF74EFD192003210491FEF757FD0499BE
:101A10001820FEF753FD0598002307930093020456
:101A200031201946FEF71CFD1A20FEF70FFD1B2082
:101A3000FEF70CFD1E20FEF709FD3820FEF706FD1F
:101A400005980799009142040892C3040993132052
:101A5000FEF7E4FC0799089A099B00911220FEF713
:101A6000DDFC0799089A099B00910520FEF7D6FC3A
:101A700006980799089A099B0091FEF7CFFC8348C6
:101A80000A9005490B91FEF79EFC0A980B99FEF708
:101A9000AFFC0CB080BDC046004C400480B586B0A1
:101AA0001E497B480590FEF783FF05981C49FEF709
:101AB000C1FE05980023029319461A46FEF786FFD9
:101AC000029B0598009319461A46FEF75DFF029A9D
:101AD00005981146FEF74AFF029A059811490391AD
:101AE000FEF75EFF029B05980121049100911946C3
:101AF0001A46FEF749FF0299049A0598FEF736FF49
:101B00000399049A0598FEF74BFF0598FEF77CFEB3
:101B100005980321FEF720FF06B080BD106100008C
:101B2000146100001027000080B582B00B495948AD
:101B30000190FEF75DFD01980949FEF70FFD019840
:101B40000021FEF745FD019810210222FEF75AFD03
:101B50000198FEF7EBFC02B080BDC0461C6100009E
:101B60001E61000080B582B000200190FEF7DCFD10
:101B7000012000904002FEF7E3FD0198FEF716FEFB
:101B8000FEF7C2FDFEF7C6FD009A032000030A21FE
:101B9000FEF7E4FD0548FEF757FD1020FEF714FEA2
:101BA0000198FEF71DFE02B080BDC046286100000E
:101BB00080B582B0104942480190FEF7B5FF019808
:101BC0000E49FEF751FF01980021FEF7B6FF01987C
:101BD000412189001B22FEF781FF01980121890222
:101BE000FEF71EFF0F20032100F098F80198FEF782
:101BF0000BFF02B080BDC046506100005261000082
:101C000080B500F017F8FFF7D7FEFFF7ABFFFFF73F
:101C100045FFFFF7CDFFFFF787FF04499C22002017
:101C2000885403492422885480BDC0469C0020204B
:101C30003C01202080B586B013480190FEF758FC87
:101C400012480290FEF754FC11480390FEF778FE0C
:101C50001B480490FEF736FF0E480590FEF7ACFCDB
:101C60000198FEF7D1FB0298FEF7CEFB0398FEF732
:101C7000D5FD0498FEF7E2FE0598FEF763FC102000
:101C8000FEF77EFB06B080BD00000A4000200A403F
:101C900000A0864000A0464010B50948FEF7DAFED5
:101CA0000B280CD1FFE70648FEF702FFA14980246C
:101CB0000A59531C0B51885400F028F9FFE710BD56
:101CC0000080104081B001466846017000214056F6
:101CD000002809D4FFE7684601781F200140012051
:101CE000884002490860FFE701B0704780E200E0E9
:101CF00081B001466846017000214056002809D491
:101D0000FFE7684601781F20014001208840024912
:101D10000860FFE701B0704700E100E070B582B0F5
:101D2000024601A80270009100214056002816D4F6
:101D3000FFE7002401A908570322D3431840174A9C
:101D4000805809578C07E50EFF24AC40A043009C47
:101D5000A401E4B2AC402043194088501AE001A924
:101D600008780F24204008380322D34318400A4A39
:101D70008058002549578D07EE0EFF25B540A84332
:101D8000009DAD01EDB2B54028432140083919400E
:101D90008850FFE702B070BD1CED00E000E400E0F9
:101DA00082B0019001980078C006000F00900128D1
:101DB00008D0FFE70098082805D0FFE70098092819
:101DC00002D002E002E001E000E0FFE702B070476D
:101DD00080B582B0019001980078C006000F009095
:101DE000012804D0FFE70098062807D007E000F09C
:101DF0004BFC4142484100F0C7FD01E000E0FFE735
:101E000002B080BD80B582B0019001980078C00614
:101E1000000F0090012804D0FFE70098062807D0A3
:101E20001DE000F031FC4142484100F0ADFD17E0FB
:101E30000C4801684A42514101600068002805D001
:101E4000FFE70948002100F0C3FDFFE705480068EF
:101E5000002803D1FFE700F0E9FDFFE700E0FFE71E
:101E600002B080BD0C0020200F27000082B001903E
:101E700001980078C006000F0090012808D0FFE705
:101E80000098082805D0FFE70098092802D002E052
:101E900002E001E000E0FFE702B0704780B582B0E9
:101EA00000F0F6FB019001A800780007C00F02B017
:101EB00080BD80B582B000F0EBFB019001A80078F6
:101EC0008007C00F02B080BD80B582B000F0E0FB9B
:101ED000019001A800784007C00F02B080BD80B516
:101EE00082B000F0D5FB019001A8007801210840E4
:101EF00002B080BD80B582B00F200190FFF7E2FEF6
:101F00000198FFF7F5FE02B080BD000081B00948DE
:101F1000802140587F2806DBFFE706498022002009
:101F20008850009002E001200090FFE7009801B087
:101F30007047C0461800202010B586B00A9C099C46
:101F4000089C059004910392029305980999401A00
:101F50000590049809994918401804900398099924
:101F6000401A039002980999491840180290059860
:101F7000039B089942180A9900911946FEF759FFE8
:101F8000059A039908980B180A9800901046FEF7D6
:101F900050FF059804994018039B0899421A0A9922
:101FA00000911946FEF745FF0598049942180399D8
:101FB00008980B180A9800901046FEF73AFF05980B
:101FC0000399029A8B18089942180A9900911946A8
:101FD000FEF72FFF059A03980299411808980B1AEB
:101FE0000A9800901046FEF724FF059804994018BF
:101FF0000399029A8B180899421A0A990091194676
:10200000FEF717FF059804994218039802994118A2
:1020100008980B1A0A9800901046FEF70AFF06B0BF
:1020200010BD0000B0B58CB0139C129C119C109C8C
:102030000B900A9109920893119910984843C10F87
:102040004018401007900B980A99CA0F8918491038
:10205000401806901198C10F40184010059009983B
:102060000899CA0F89184910401804900B980999CB
:102070000A9A8218089BCB18139C0094FEF734FE32
:1020800006980799401A0499059A891A129A139B7F
:1020900011AC247801250295019400931A4BFFF7A7
:1020A0007BF80CB0B0BDC046B0B58AB00E9C0990AC
:1020B000089107AD03952A8006AC23702178089813
:1020C0004843C10F40184010059020784008049004
:1020D000059A9620801A0999AA3223785B182D88D0
:1020E0000095FEF701FE039B0599A020401A09996F
:1020F0000E9A1B8824780125029501940093024BC7
:10210000FFF74AF80AB0B0BDFFFF000080B584B009
:1021100003A900200870FB4A126802920870FFE7CA
:102120000298002800D1EBE10298007840090128CC
:1021300005DBFFE702994888401C4880FFE70298CA
:10214000007840090190062800D9D0E1019881006B
:1021500001A040588746C04675210000CD210000EF
:1021600037220000B3230000032400006D24000088
:10217000CB240000E5480088002203A98956C84006
:10218000C00700281AD0FFE7029900204880029972
:102190008880029908781F22104020300870029928
:1021A0000878E1221040087002984069002804D0A5
:1021B000FFE7029841698847FFE706E0029908783F
:1021C000E122104016300870FFE790E1CE48008809
:1021D000002203A98956C840C007002807D1FFE79D
:1021E000029908781F2210404030087022E00299BE
:1021F0004888498988421CDBFFE702994888898919
:10220000884216DAFFE7029908781F2210408030D2
:10221000087002990878E12210400830087002988E
:102220004069002804D0FFE7029841698847FFE72A
:10223000FFE7FFE75BE1029948880989884229DACC
:10224000FFE702998888401C8880029880880128CE
:1022500007D1FFE7029908781F221040603008700C
:1022600017E0029900208880029908781F22104008
:10227000087002990878E1221040001D0870029849
:102280004069002804D0FFE7029841698847FFE7CA
:10229000FFE78DE002994888098988421EDBFFE745
:1022A000029948884989884218DAFFE70299002094
:1022B0008880029908781F221040087002990878D7
:1022C000E1221040801C087002984069002804D068
:1022D000FFE7029841698847FFE768E0029948886C
:1022E000498988421EDBFFE702994888898988422C
:1022F00018DAFFE7029900208880029908781F22E7
:102300001040087002990878E12210400A300870E5
:1023100002984069002804D0FFE702984169884785
:10232000FFE743E002994888898988421EDBFFE77E
:1023300002994888C989884218DAFFE70299002083
:102340008880029908781F22104008700299087846
:10235000E12210400E30087002984069002804D035
:10236000FFE7029841698847FFE71EE00299488825
:10237000C989884218DBFFE702990020888002990A
:1023800008781F221040087002990878E122104056
:102390001230087002984069002804D0FFE70298C4
:1023A00041698847FFE7FFE7FFE7FFE7FFE7FFE750
:1023B0009DE088480088002203A98956C840C007CC
:1023C00000280FD0FFE702998888401C8880029976
:1023D00008781F2210404030087002994888401E3B
:1023E00048800DE0029948880989884207DBFFE7A9
:1023F000029908781F22104040300870FFE7FFE77D
:1024000075E073480088002203A98956C840C007B8
:10241000002807D1FFE7029908781F2210404030BA
:10242000087022E002994888898988421CDBFFE70E
:1024300002994888C989884216DAFFE70299087824
:102440001F221040A030087002990878E122104045
:102450000C30087002984069002804D0FFE7029809
:1024600041698847FFE7FFE7FFE740E058480088F9
:10247000002203A98956C840C007002807D1FFE7FA
:10248000029908781F221040403008701CE0029921
:102490004888C989884216DBFFE7029908781F221D
:1024A0001040C030087002990878E12210401030C6
:1024B000087002984069002804D0FFE7029841693B
:1024C0008847FFE7FFE7FFE711E041480088002267
:1024D00003A98956C840C007002807D1FFE7029921
:1024E00008781F22104040300870FFE7FFE7FFE741
:1024F0000298806902900398401C03A908700FE6B7
:1025000004B080BD0800202012002020640120209B
:1025100080B586B004A900200880574909882B4A55
:10252000118003A90870524A126805920870FFE7EB
:10253000059900200029029006D0FFE70598006960
:10254000411E88410290FFE70298C00700282BD067
:10255000FFE71E480088019005980078C007002812
:102560000BD0FFE7059800698047414248410022AF
:1025700003A989568840009008E0059800698047C3
:10258000002203A9895688400090FFE7019800992E
:1025900008430E490880FFE7059880690590039875
:1025A000401C03A90870C3E708480088C14304A879
:1025B0000180008806490B8802465A401040054AAF
:1025C00010800498088006B080BDC0460600202018
:1025D000120020206401202083B00190244800686C
:1025E00000900198002805D0FFE7224800781128C4
:1025F00004DBFFE702A9FF20087033E0FFE7009843
:1026000000280DD0FFE700980199884204D1FFE728
:1026100002A9FF20087025E0009880690090EEE78D
:1026200013490868019A9061019A10781F23184095
:102630001070019A1078E123184016301070019A3A
:1026400000205080019A9080019808600A4908880B
:102650004000088007480178491C0170007802A9F1
:102660000870FFE7002102A8405603B07047C0463B
:1026700008002020100020200400202080B5FFF753
:1026800047FFFFF743FD80BDC34800787047C04651
:10269000B0B584B00120009041021F480190FDF7C1
:1026A0001BFF009904460198621E944103AB0293FC
:1026B0001A78FE252A4012191A700902FDF70CFF3C
:1026C0000099029B04460198621E94411A786400A6
:1026D000FD252A4012191A70C907FDF7FDFE009961
:1026E000029B04460198621E94411A78A400FB25BF
:1026F0002A4012191A700907FDF7EEFE02990246E8
:10270000501E82410878D200F723184080180870C4
:10271000039804B0B0BDC04600000A4080B592B036
:102720000120039081020191F3480090FDF755FECE
:102730006A48FDF725FE00980199FDF7EBFE684811
:10274000FDF71EFE11201090FFF70AF936200E90BB
:10275000FFF706F97020FFF7F9F83A20FFF700F9C4
:1027600005200690FFF7F2F8B220FFF7F9F80C20E9
:102770000290FFF7EBF80298FFF7E8F800200490CA
:10278000FFF7E4F833200C90FFF7E0F80C98FFF720
:10279000DDF8B720FFF7E4F83520FFF7D7F8BB20C6
:1027A000FFF7DEF81A20FFF7D1F8C020FFF7D8F8BE
:1027B0002C20FFF7CBF8C220FFF7D2F80398FFF7E1
:1027C000C5F8C320FFF7CCF80B200990FFF7BEF83F
:1027D000C420FFF7C5F82020FFF7B8F8C620FFF7A0
:1027E000BFF80F20FFF7B2F8D020FFF7B9F8A42008
:1027F000FFF7ACF8A120FFF7A9F82120FFF7B0F808
:10280000E020FFF7ADF8F0200890FFF79FF804985C
:10281000FFF79CF804200590FFF798F80598FFF75C
:1028200095F80598FFF792F80698FFF78FF829209A
:102830001190FFF78BF80C98FFF788F83E200D9069
:10284000FFF784F83820FFF781F812200790FFF790
:102850007DF80798FFF77AF828200B90FFF776F8B5
:102860003020FFF773F8E120FFF77AF80898FFF7B8
:102870006DF807200A90FFF769F80A20FFF766F85D
:102880000D20FFF763F80998FFF760F80A98FFF743
:102890005DF80B98FFF75AF80C98FFF757F80D986A
:1028A000FFF754F80E98FFF751F814200F90FFF738
:1028B0004DF80F98FFF74AF81198FFF747F83220C4
:1028C000FFF744F81098FFF74BF80648FDF758FD5E
:1028D0001198FFF745F812B080BDC046009F240054
:1028E00000127A00007C920080B582B00020019036
:1028F0000090FFF785F9FFF7FDFA00F059F9FFF7AF
:102900000DFF00F099F8FFE70098401C0090009937
:102910000F4848430F4940180122D041884203D84C
:10292000FFE7FFF7ABFEFFE700990B4848430B4971
:1029300040180122D041884205D8FFE7FFF7A4FEE6
:1029400000F0E4F8FFE70648FDF71AFDDCE7C046B3
:10295000CDCCCCCC98999919295C8FC250B81E0562
:102960000071020081B000900098008804498842FC
:1029700004DBFFE7009903480880FFE701B07047D8
:10298000102700000F27000081B0694608700098EA
:102990000149087001B070471400202080B582B052
:1029A000014601A80180018808480022FDF7F8FFD0
:1029B00002B080BD80B582B0014601A801800188C7
:1029C00002480122FDF7ECFF02B080BD00A0864066
:1029D00080B584B0024603A80090028002AA01924A
:1029E0001180FFF7BFFF0198FFF7BCFF0098008838
:1029F000FFF7E0FF01980088FFF7D0FF04B080BD2B
:102A000080B582B0014601A8017001780648FDF743
:102A10000FFEFFE70448FDF7C3FD002801D0FFE7E4
:102A2000F8E702B080BDC04600A0464080B5002156
:102A30000846FFF7CDFF80BD70B594B00120810638
:102A40000B912D480A90FDF7B4FC00210091052060
:102A500006908201AA230846FEF781FA06992748C4
:102A6000009003201F26102305933246FFF71CFB1E
:102A7000059B23480090162008213246FFF714FBDF
:102A8000282007901390502009901290412108911E
:102A90001191109013981299119A109B0396194C4A
:102AA00002941825019502240094FFF7BBFA0899B7
:102AB0000998C8220F920E900D910C900F980E99C4
:102AC0000D9A0C9B0396104E029601950094FFF709
:102AD000A9FA06990798089A099B344C0294019127
:102AE0000A2100911946FFF727FA0A980B99FDF77A
:102AF00007FD14B070BDC04600200A4066610000AA
:102B0000716100005C6100006161000010B58EB071
:102B10000D900CA9052008700D980B90002804D08A
:102B2000FFE70B9801281FD03DE00CA80790007824
:102B30001E49029101900A2008900090282041220D
:102B4000099250230A931946FFF7F6F90799089856
:102B5000099A0A9B09780024029401910090C820E8
:102B60001946FFF7E9F91EE00CA803900078002150
:102B7000029101900A2004900090282041220592A1
:102B8000502306931946FFF7D7F903990498059A3D
:102B9000069B0978054C029401910090C8201946C3
:102BA000FFF7CAF9FFE70EB010BDC046FFFF0000F7
:102BB00010B582B0244800907021FDF79CFA00996E
:102BC00022480861224848612248C86222480863B6
:102BD000224888642248C864224848662248886699
:102BE00000200190FFE7019803282BDCFFE7019804
:102BF0001C210B4643431448C25CFE242240C254AD
:102C0000019B0A465A43831807221A81019B0A46F0
:102C10005A4383180C225A81019B0A465A4383184F
:102C20001B229A81019B0A465A4383182022DA818B
:102C3000019A51434018FFF7CFFCFFE70198401C71
:102C40000190D0E702B010BD68012020DF1E000017
:102C50006D1E0000B31E0000D11D0000C91E000043
:102C6000051E00009D1E0000A11D00002021020C79
:102C700001D010211046020A01D01046083902097D
:102C800001D01046091F820801D01046891E420853
:102C900001D0881E7047081A70470000000000002D
:102CA00002E008C8121F08C1002AFAD170470000CC
:102CB0007047000000000000002001E001C1121F69
:102CC000002AFBD1704700000149086070470000EE
:102CD00000002020F8B506460C46FDF7D8FA051E80
:102CE0000F4600D00120014349000B484908411A12
:102CF000C90F0DD0002E01D0012100E000210C43AE
:102D000061004908401AC00F02D10120FFF7DCFF23
:102D100028463946F8BD00000000F07F00000000A2
:102D2000000000000000000000000404040404008F
:102D30000004000014140A0000000000000000005D
:102D400000000A0A1F0A0A1F0A0A000000040E15E2
:102D500005060C14150E0400000012150D152E2C7E
:102D60002A1200000000040A0A3615152916000070
:102D7000020201000000000000000000100808042A
:102D800004040404080810000204040808080808E1
:102D90000404020000000004150E0E1504000000DB
:102DA00000000008083E08080000000000000000C5
:102DB000000000000202010000000000003F0000CF
:102DC0000000000000000000000000000002000001
:102DD00000201010080804040202010000000E1177
:102DE00011111111110E0000000004060404040466
:102DF000040E000000000E1111080402011F000063
:102E000000000E11100C1010110E00000000080C34
:102E10000C0A091F081C000000001F01010F1110FF
:102E2000110E000000000C12010D1311110E000014
:102E300000001E10080804040404000000000E1125
:102E4000110E1111110E000000000E1111191610B3
:102E5000090600000000000004000000000400005B
:102E6000000000000004000000040400000010083E
:102E70000402020408100000000000003F003F00B0
:102E80000000000000000204081010080402000006
:102E900000000E11110804040004000000001C22B0
:102EA000292D2D1D221C0000000004040C0A0A1EFE
:102EB0001233000000000F12120E1212120F000047
:102EC00000001E1101010101110E000000000F128F
:102ED00012121212120F000000001F120A0E0A0234
:102EE000121F000000001F120A0E0A020207000053
:102EF00000001C1201013911120C000000003312F5
:102F0000121E12121233000000001F0404040404F5
:102F1000041F000000003E08080808080808090708
:102F2000000037120A060A121237000000000702DA
:102F300002020202223F000000003B1B1B1B151572
:102F40001535000000003B1216161A1A1217000061
:102F500000000E1111111111110E000000000F12CE
:102F6000120E02020207000000000E1111111117CB
:102F7000190E180000000F12120E0A12123700006C
:102F800000001E1101060810110F000000001F159F
:102F900004040404040E0000000033121212121282
:102FA000120C000000003312120A0A0C0404000084
:102FB0000000151515150E0A0A0A000000001B0A6C
:102FC0000A04040A0A1B000000001B0A0A0A04047F
:102FD000040E000000001F0908040402121F000074
:102FE0001C0404040404040404041C00000202047D
:102FF00004040808081010000E080808080808084B
:1030000008080E00040A0000000000000000000094
:1030100000000000000000000000003F020400006B
:10302000000000000000000000000000000C121C66
:10303000123C000000030202020E1212120E0000E7
:1030400000000000001C1202120C000000181010FA
:10305000101C1212123C000000000000000C121E96
:10306000021C000000182404041E0404041E0000B6
:1030700000000000003C120C021C221C0003020293
:10308000020E1212123700000004040000060404AD
:10309000040E000000080800000C080808080807D3
:1030A00000030202021A0A060A13000000070404C1
:1030B00004040404041F000000000000000F1515A4
:1030C0001515000000000000000F1212123700005A
:1030D00000000000000C1212120C000000000000A2
:1030E000000F1212120E020700000000001C121244
:1030F000121C103800000000001B0602020700002E
:1031000000000000001E020C101E00000000000461
:10311000041E0404041C000000000000001B121226
:10312000123C000000000000001B0A0A040400001A
:10313000000000000015150E0A0A00000000000043
:10314000001B0A040A1B00000000000000331212DA
:103150000C08040300000000001E0804041E000008
:1031600018080808080C08080808180008080808C3
:1031700008080808080808080604040404080404E9
:103180000404060016090000000000000000000012
:10319000000000000000000000000000000000002F
:1031A00000000008080808080808000018180000B7
:1031B00000486C2412000000000000000000000025
:1031C0000000002424247F1212127F121212000029
:1031D0000000081C2A2A0A0C1828282A2A1C080879
:1031E00000000022251515152A58545454220000B9
:1031F0000000000C1212120A76252911916E0000AF
:1032000000060604030000000000000000000000AB
:10321000004020101008080808080810102040007E
:103220000002040808101010101010080804020012
:103230000000000008086B1C1C6B08080000000060
:1032400000000000080808087F08080808000000BF
:10325000000000000000000000000000060604035B
:103260000000000000000000FE0000000000000060
:103270000000000000000000000000000606000042
:1032800000008040402020101008080404020200C2
:1032900000000018244242424242424224180000E8
:1032A000000000080E08080808080808083E00008A
:1032B0000000003C4242422020100804427E0000F0
:1032C0000000003C4242201820404042221C0000E6
:1032D000000000203028242422227E2020780000B4
:1032E0000000007E0202021A26404042221C00001A
:1032F000000000382402021A26424242241800002C
:103300000000007E222210100808080808080000AB
:103310000000003C4242422418244242423C000049
:10332000000000182442424264584040241C00001F
:10333000000000000000181800000000181800002D
:103340000000000000000008000000000008080461
:103350000000004020100804020408102040000073
:103360000000000000007F0000007F00000000005F
:103370000000000204081020402010080402000091
:103380000000003C42424640201010001818000087
:103390000000001C225A555555552D42221C000094
:1033A0000000000808181414243C224242E70000E0
:1033B0000000001F2222221E22424242221F000041
:1033C0000000007C4242010101010142221C000078
:1033D0000000001F2242424242424242221F00009D
:1033E0000000003F4212121E12120242423F000031
:1033F0000000003F4212121E1212020202070000D9
:103400000000003C2222010101712122221C000047
:10341000000000E7424242427E42424242E7000050
:103420000000003E0808080808080808083E0000D8
:103430000000007C10101010101010101010110F50
:103440000000007722120A0E0A12122222770000D0
:10345000000000070202020202020202427F000094
:1034600000000077363636362A2A2A2A2A6B0000D0
:10347000000000E346464A4A525252626247000048
:103480000000001C2241414141414141221C0000F9
:103490000000003F424242423E0202020207000098
:1034A0000000001C2241414141414D53321C60004B
:1034B0000000003F4242423E1212222242C7000058
:1034C0000000007C4242020418204042423E0000BC
:1034D0000000007F4908080808080808081C0000C8
:1034E000000000E74242424242424242423C000067
:1034F000000000E7424222242414141808080000A7
:103500000000006B494949495555362222220000E6
:10351000000000E7422424181818242442E7000081
:10352000000000772222141408080808081C000074
:103530000000007E2120101008040442423F0000D9
:10354000007808080808080808080808080878002B
:103550000000020204040808081010202020404047
:10356000001E1010101010101010101010101E005F
:1035700000384400000000000000000000000000CF
:10358000000000000000000000000000000000FF3C
:10359000000608000000000000000000000000001D
:1035A000000000000000003C4278444242FC000061
:1035B000000000030202021A26424242261A0000BC
:1035C00000000000000000384402020244380000FD
:1035D00000000060404040784442424264D800000D
:1035E000000000000000003C427E0202423C00005D
:1035F000000000F08808087E08080808083E00005F
:10360000000000000000007C22221C023C42423CE0
:10361000000000030202023A4642424242E7000032
:103620000000000C0C00000E08080808083E00000E
:103630000000003030000038202020202020221EF2
:103640000000000302020272120A16122277000022
:103650000000000E0808080808080808083E0000D6
:10366000000000000000007F9292929292B700004A
:10367000000000000000003B4642424242E70000DA
:10368000000000000000003C42424242423C000078
:10369000000000000000001B26424242221E0207DA
:1036A000000000000000007844424242447840E0BC
:1036B00000000000000000774C040404041F000018
:1036C000000000000000007C42023C40423E00003E
:1036D000000000000008083E080808080830000044
:1036E00000000000000000634242424262DC000031
:1036F00000000000000000E7422424140808000035
:1037000000000000000000EB49495555222200004E
:10371000000000000000007624181818246E000035
:1037200000000000000000E74224241418080807E5
:10373000000000000000007E22100808447E000007
:1037400000C0202020202010202020202020C00089
:103750001010101010101010101010101010101069
:1037600000060808080808100808080808080600E5
:103770000C32C20000000000000000000000000049
:103780000000000000000000000000000000000039
:103790000000000000000000000000000000000029
:1037A0000000000000000000000000000000000019
:1037B0000000000000000000600060006000600089
:1037C0006000600060004000200020002000000039
:1037D00000000000600060006000000000000000C9
:1037E0000000000060066006300398018800440075
:1037F00000000000000000000000000000000000C9
:1038000000000000000000000000000000000000B8
:103810000000000000000000100210021002100260
:10382000FE07FE0708020801080108010801FE075B
:10383000FE0704010401040104010000000000006F
:1038400000000000000040004000F00158034C035D
:10385000CC034C0058007000E000C001C0014003E0
:103860004C035C034C034801F000400040000000A2
:1038700000000000000000000E010A01910091000C
:103880009100510051003A00AE03A00250045004D0
:103890004804480448048402840300000000000037
:1038A000000000000000000038006C006C006C009C
:1038B0006C006C002C0098071C011A0133013301C5
:1038C0006301E300C308C6093C07000000000000D4
:1038D000000000000C001C00100010000800040094
:1038E00000000000000000000000000000000000D8
:1038F00000000000000000000000000000000000C8
:103900000000000000040002000180008000400070
:103910004000200020002000200020002000200087
:103920004000400080008000000100020004000010
:103930000000000002000400080010001000200039
:103940002000400040004000400040004000400097
:1039500020002000100010000800040002000000F9
:103960000000000000000000000000004000C00057
:103970004000460C4E0FD001F0015E0F460C400097
:1039800040004000000000000000000000000000B7
:1039900000000000000000000000000000004000E7
:1039A0004000400040004000FE0F4000400040004A
:1039B0004000400000000000000000000000000087
:1039C00000000000000000000000000000000000F7
:1039D00000000000000000000000000000000000E7
:1039E000000000000C001C00100010000800040083
:1039F00000000000000000000000000000000000C7
:103A00000000000000000000FE07000000000000B1
:103A100000000000000000000000000000000000A6
:103A20000000000000000000000000000000000096
:103A30000000000000000000000000000000000086
:103A4000000000001C001C001C0000000000000022
:103A50000000000000040006000200030001000155
:103A60008000800040004000600020002000100026
:103A70001000080008000C0004000600020000000E
:103A800000000000000000000000F00098010C039E
:103A90000C030606060606060606060606060606C3
:103AA00006060C030C039801F00000000000000063
:103AB0000000000000000000000040007C006000EA
:103AC00060006000600060006000600060006000F6
:103AD0006000600060006000FC0300000000000067
:103AE00000000000000000000000F8008401020354
:103AF00006030603000300018001C00060002000EF
:103B00001000080204020602FE030000000000008C
:103B1000000000000000000000007800C6008601E0
:103B2000860180018001C000700080010001000357
:103B30000003060306038601F800000000000000F1
:103B40000000000000000000000080018001C001B2
:103B5000A001A00190018801880184018201FE0F6B
:103B60008001800180018001E0070000000000006A
:103B700000000000000000000000FC03040004003E
:103B8000040004000400F4008C010403000300039B
:103B90000603060382018401F80000000000000013
:103BA00000000000000000000000E00118030C030A
:103BB0000C0004000600E60116030E0606060606C3
:103BC000060604060C021803F000000000000000C6
:103BD00000000000000000000000F8070C060402CE
:103BE000040100010001800080004000400040000E
:103BF00060006000600060006000000000000000E5
:103C000000000000000000000000F8010C030606A0
:103C1000060606060C021C03F000C8010C0306068B
:103C20000606060606060C03F00100000000000070
:103C300000000000000000000000F0000C010C0378
:103C4000060206060606060606078C067806000625
:103C5000000300030C018C0178000000000000004C
:103C60000000000000000000000000000000000054
:103C700000000000E000E000E000000000000000A4
:103C800000000000E000E000E00000000000000094
:103C90000000000000000000000000000000000024
:103CA0000000000060006000000000000000000054
:103CB00000000000000060006000400020002000C4
:103CC000000000000000000000040002000180006D
:103CD0004000200010000800040008001000200030
:103CE000400080000001000200040000000000000D
:103CF00000000000000000000000000000000000C4
:103D000000000000FE07000000000000FE070000A9
:103D100000000000000000000000000000000000A3
:103D20000000000000000000040008001000200057
:103D30004000800000010002000400020001800039
:103D400040002000100008000400000000000000F7
:103D500000000000000000000000E0031806040C52
:103D6000040C0C0C0C0C00078001400040004000CB
:103D700000000000E000E000E000000000000000A3
:103D80000000000000000000E00018030C02CC0559
:103D900064056605A605B604B604B604B604B60204
:103DA000E4010C040C021803F00000000000000005
:103DB00000000000000000000000600060005000F3
:103DC000D00090009000880088010801F8010403E9
:103DD00004030402020202060F0F000000000000AC
:103DE00000000000000000000000FE008C030C0337
:103DF0000C030C030C038C01FC000C030C020C06DE
:103E00000C060C060C060C03FE010000000000006E
:103E100000000000000000000000E00318030C0692
:103E20000C04040406000600060006000600060056
:103E300006040C040C021803F0000000000000004F
:103E4000000000000000000000007F008C010C0357
:103E50000C030C060C060C060C060C060C060C06D5
:103E60000C060C030C038C017F0000000000000016
:103E700000000000000000000000FF03060306042D
:103E80000604060086008600FE0086008600860086
:103E90000600060406040602FF03000000000000FE
:103EA00000000000000000000000FF0306030604FD
:103EB0000604060086008600FE0086008600860056
:103EC00006000600060006001F00000000000000BB
:103ED00000000000000000000000F00018010C02CB
:103EE0000C0204020600060006000600C60F0603C8
:103EF00006030C030C031803F00000000000000090
:103F0000000000000000000000000F0F060606067B
:103F10000606060606060606FE0706060606060648
:103F200006060606060606060F0F00000000000043
:103F300000000000000000000000FC0360006000C2
:103F40006000600060006000600060006000600071
:103F50006000600060006000FC03000000000000E2
:103F600000000000000000000000F807C000C000D2
:103F7000C000C000C000C000C000C000C000C00041
:103F8000C000C000C000C000C000C60066003C0009
:103F900000000000000000000000CF038601C60002
:103FA00046002600160036002E006E004600C600B1
:103FB00086008601060106038F070000000000004E
:103FC000000000000000000000001F0006000600C6
:103FD00006000600060006000600060006000600B1
:103FE0000600060406040602FF03000000000000AD
:103FF00000000000000000000000070786038603A1
:104000008E038E034E034E034A035A035A033A03A8
:10401000320332033203120387070000000000005E
:10402000000000000000000000008E0F0C021C02C7
:104030001C0234023402640264024402C402840298
:1040400084038403040304031F0200000000000033
:1040500000000000000000000000F00098010C03C8
:104060000C020606060606060606060606060606EE
:1040700006060C020C039801F0000000000000008E
:1040800000000000000000000000FF00060306061C
:1040900006060606060606068603FE00060006005D
:1040A00006000600060006001F00000000000000D9
:1040B00000000000000000000000F00098010C0368
:1040C0000C0206060606060606060606060606068E
:1040D00076064C02CC039801F00080070003000034
:1040E00000000000000000000000FF0106030606BB
:1040F0000606060606060603FE004600C600860003
:1041000086010603060306060F0E000000000000ED
:1041100000000000000000000000F8020C0306028E
:10412000060206000E003C00F800E00380030007D2
:104130000206020606060C03F00100000000000063
:1041400000000000000000000000FE07620461089B
:104150006108600060006000600060006000600056
:104160006000600060006000F801000000000000D6
:10417000000000000000000000001E070C020C02FE
:104180000C020C020C020C020C020C020C020C02BF
:104190000C020C020C021801F000000000000000EC
:1041A000000000000000000000000F0706020401EC
:1041B00004010C010C018800880098009800500050
:1041C00050007000300020002000000000000000BF
:1041D00000000000000000000000F70E620442042E
:1041E0004604460464026402E402E4029C029C0168
:1041F00098019801880188008800000000000000F4
:10420000000000000000000000009E070C010801F3
:1042100018019000B0006000200060006000D00035
:1042200090008801080104038E07000000000000D0
:10423000000000000000000000000F0F0604040250
:104240000C0208011801B800B000700060006000A6
:104250006000600060006000F801000000000000E5
:1042600000000000000000000000FC070C02060334
:10427000020180018000400040002000200010006A
:10428000180008040C040402FE03000000000000F3
:1042900000000000E003200020002000200020009B
:1042A000200020002000200020002000200020000E
:1042B000200020002000200020002000E00300005B
:1042C00000000000000000000400040008000800D6
:1042D0001000100010002000200040004000C0002E
:1042E00080008000000100010002000200020004C2
:1042F000000000007C004000400040004000400002
:1043000040004000400040004000400040004000AD
:104310004000400040004000400040007C000000A1
:104320000000600090000801000000000000000094
:10433000000000000000000000000000000000007D
:10434000000000000000000000000000000000006D
:10435000000000000000000000000000000000005D
:10436000000000000000000000000000000000004D
:104370000000000000000000000000000000FF0F2F
:1043800000000000180060000000000000000000B5
:10439000000000000000000000000000000000001D
:1043A000000000000000000000000000000000000D
:1043B00000000000000000000000000000000000FD
:1043C00000000000F0010C030C030003E0031C03D9
:1043D0000E03060306038E0B7C0E00000000000097
:1043E000000000000000000008000E000C000C009F
:1043F0000C000C00CC013C031C060C060C060C0641
:104400000C060C060C021C03E40100000000000076
:10441000000000000000000000000000000000009C
:1044200000000000F0008C018C01860106000600EF
:10443000060006020C020C01F00000000000000063
:1044400000000000000000000002C00300030003A1
:104450000003000378038C030C0306030603060322
:104460000603060304038C07780100000000000027
:10447000000000000000000000000000000000003C
:1044800000000000E001180308020C060C06FC07FF
:104490000C000C0018041802E001000000000000ED
:1044A00000000000000000000000C00360063006AD
:1044B00030003000FE0130003000300030003000AD
:1044C0003000300030003000FC010000000000002F
:1044D00000000000000000000000000000000000DC
:1044E00000000000F007D8068C018C018C019801B7
:1044F000F8000C00FC00CC03060306038E03F80052
:10450000000000000000000008000E000C000C007D
:104510000C000C00EC011C030C030C030C030C033B
:104520000C030C030C030C039E07000000000000AA
:1045300000000000000000000000600060000000BB
:10454000000040007C0060006000600060006000CF
:104550006000600060006000FC03000000000000DC
:1045600000000000000000000000C001C0010000C9
:1045700000000001F00180018001800180018001C4
:10458000800180018001800180018001CC007C00DD
:10459000000000000000000008000E000C000C00ED
:1045A0000C000C008C038C008C004C006C005C0038
:1045B0008C008C010C010C039E0700000000000021
:1045C000000000000000000040007C00600060006F
:1045D00060006000600060006000600060006000DB
:1045E0006000600060006000FC030000000000004C
:1045F00000000000000000000000000000000000BB
:10460000000000003707EE066606660666066606C8
:104610006606660666066606FF0F000000000000DC
:10462000000000000000000000000000000000008A
:1046300000000000EE011C030C030C030C030C0330
:104640000C030C030C030C039E0700000000000089
:10465000000000000000000000000000000000005A
:1046600000000000F00098010C030606060606068E
:10467000060606060C030C03F00000000000000014
:10468000000000000000000000000000000000002A
:1046900000000000EE011C030C060C060C060C06C4
:1046A0000C060C060C031C03EC010C000C003E0075
:1046B00000000000000000000000000000000000FA
:1046C0000000000078028C030C03060306030603B7
:1046D0000603060304038C03780300030003C007EA
:1046E00000000000000000000000000000000000CA
:1046F000000000009F035806380618001800180034
:104700001800180018001800FF000000000000004A
:104710000000000000000000000000000000000099
:1047200000000000F0031C030C020C023800F00033
:10473000C003040304038C03FC010000000000001C
:104740000000000000000000000000002000200029
:1047500030003000FE01300030003000300030000A
:104760003000300030023002E001000000000000A4
:104770000000000000000000000000000000000039
:10478000000008028E030C030C030C030C030C0343
:104790000C030C030C039C077801000000000000D0
:1047A0000000000000000000000000000000000009
:1047B000000000001E070C0208010801180190000B
:1047C000B000B000600060002000000000000000A9
:1047D00000000000000000000000000000000000D9
:1047E00000000000F70E6204460464026402EC025A
:1047F0009C01980198019801080000000000000049
:1048000000000000000000000000000000000000A8
:1048100000000000BC0718011001B000600060003B
:10482000E0009000080108039E070000000000005F
:104830000000000000000000000000000000000078
:10484000000000009E070801080108019000900088
:10485000B0006000600060002000200024001C0008
:104860000000000000000000000000000000000048
:1048700000000000FC018401C4004400600020002E
:104880003000180208020C03FC01000000000000C8
:104890000000000000038000800080008000800095
:1048A00080008000800040002000400080008000E8
:1048B00080008000800080008000800000030000F5
:1048C00040004000400040004000400040004000E8
:1048D00040004000400040004000400040004000D8
:1048E00040004000400040004000400040004000C8
:1048F000000000000C00100010001000100010005C
:1049000010001000100020004000200010001000D7
:104910001000100010001000100010000C0000002B
:1049200000001C002204C2048003000000000000FC
:104930000000000000000000000000000000000077
:104940000000000000000000000000000000000067
:104950000000000000000000000000000000000057
:104960000000000000000000000000000000000047
:104970000000000000000000000000000000000037
:104980000000000000000000000000000000000027
:1049900000000000000000000000C001C001C001D4
:1049A000C001C001C001C001800080008000800003
:1049B00080008000800000000000000000008001F6
:1049C000C003C003800100000000000000000000E0
:1049D000000000000000E01CE01CF01E700E380714
:1049E000180308018400000000000000000000001F
:1049F00000000000000000000000000000000000B7
:104A000000000000000000000000000000000000A6
:104A10000000000000000000000000002010201036
:104A2000201020102010FE7FFE7F100810081008B4
:104A30001008100810081008FE7FFE7F0804080404
:104A40000804080408040000000000000000000042
:104A5000000000000000000000010001C007601914
:104A6000103118311839183938017001E001C003CC
:104A70008007000F001D003900311C311C310C3142
:104A80000C11180DE00700010001000100000000FA
:104A90000000000000000000000000001C1036189C
:104AA0006308630C63046304630263026301361DDD
:104AB0009C378022806340634063206320633063BF
:104AC00010221836081C0000000000000000000042
:104AD000000000000000000000000000F00098014D
:104AE0008C018C018C018C018C00CC007800183E6C
:104AF0001C083608320863046304C304C3038343F9
:104B000006438E26781C0000000000000000000014
:104B10000000000000001C003C003C0030003000A1
:104B200010000C0006000000000000000000000063
:104B30000000000000000000000000000000000075
:104B40000000000000000000000000000000000065
:104B50000000000000000040002000100008000CD1
:104B600000040006000300030003800180018001AF
:104B700080018001800180018001000300030003A7
:104B800000060006000C0008001000200040000095
:104B900000000000000002000400080010003000C7
:104BA00020006000C000C000C000800180018001C2
:104BB00080018001800180018001C000C000C00030
:104BC00060006000300010000800040002000000D7
:104BD00000000000000000000000000000000000D5
:104BE00000018003800300011C713C79783DC007FF
:104BF0000001C007783D3C791C71000180038003EF
:104C00008001000000000000000000000000000023
:104C10000000000000000000000000000000000094
:104C2000000000010001000100010001000100017D
:104C3000FC7F0001000100010001000100010001F2
:104C40000000000000000000000000000000000064
:104C50000000000000000000000000000000000054
:104C60000000000000000000000000000000000044
:104C70000000000000000000000000000000000034
:104C80001C003C003C003000300010000C0006000E
:104C90000000000000000000000000000000000014
:104CA0000000000000000000000000000000000004
:104CB000FE7F000000000000000000000000000077
:104CC00000000000000000000000000000000000E4
:104CD00000000000000000000000000000000000D4
:104CE00000000000000000000000000000000000C4
:104CF000000000000000000000000000000018009C
:104D00003C003C0018000000000000000000000013
:104D10000000000000000040006000200030001093
:104D200000180008000C0004000600020003000147
:104D300080018000C00040006000200030001000B2
:104D4000180008000C00040006000200000000002B
:104D5000000000000000000000000000C007600C20
:104D600030181830183018200C600C600C600C6083
:104D70000C600C600C600C600C601820183018304F
:104D80003018600CC00700000000000000000000A8
:104D90000000000000000000000000000001800191
:104DA000F801800180018001800180018001800183
:104DB00080018001800180018001800180018001EB
:104DC0008001C003F81F0000000000000000000088
:104DD000000000000000000000000000E007101CC0
:104DE0000818043004300C300C3000300018000873
:104DF0000004000200018000400020201020082054
:104E00000430FC1FFC1F0000000000000000000038
:104E1000000000000000000000000000E003180E89
:104E20000C0C0C180C180C180018000C0006C00311
:104E3000000E00180010003000300C300C300C1048
:104E40000C18180CE0030000000000000000000037
:104E5000000000000000000000000000000C000E38
:104E6000000E000F800E800E400E600E200E100E01
:104E7000100E080E040E040EFE7F000E000E000E33
:104E8000000E000E000EC07F0000000000000000B9
:104E9000000000000000000000000000F03FF03FB4
:104EA00010001000100008000800C807280C18188F
:104EB000081000300030003000300C300C30041886
:104EC0000418080CF00300000000000000000000BF
:104ED000000000000000000000000000800FC01073
:104EE000203010301800180008000C008C0F6C18CF
:104EF0003C301C600C600C600C600C60186018206A
:104F000030306018C0070000000000000000000002
:104F1000000000000000000000000000F83FF83F23
:104F20001C100C0804080404000400020002000124
:104F300000010001800080008000C000C000C000AF
:104F4000C000C000C0000000000000000000000021
:104F5000000000000000000000000000E007300C2E
:104F600018180C300C300C301C3038187008E00762
:104F7000B007180E0C1C0638063006300630063016
:104F80000C18180CE00300000000000000000000F6
:104F9000000000000000000000000000E003180412
:104FA0000C080C180610063006300630063006389D
:104FB0000C3C1836F03100300018001800180C0CAA
:104FC0000C060C03F00100000000000000000000CF
:104FD00000000000000000000000000000000000D1
:104FE000000000000000000000008001C003C003BA
:104FF00080010000000000000000000000008001AF
:10500000C003C00380010000000000000000000099
:105010000000000000000000000000000000000090
:1050200000000000000000000000C000C000000000
:105030000000000000000000000000000000000070
:105040000000C000C0008000800040004000000060
:105050000000000000000000000000200010000818
:105060000004000600038001C0006000300018004A
:105070000C00180030006000C00080010003000632
:1050800000040008001000200000000000000000E4
:105090000000000000000000000000000000000010
:1050A00000000000000000000000FE7F0000000083
:1050B000000000000000FE7F000000000000000073
:1050C00000000000000000000000000000000000E0
:1050D00000000000000000000000040008001000B4
:1050E00020006000C000800100030006000C0018D2
:1050F00000300018000C000600038001C0006000B2
:105100002000100008000400000000000000000063
:1051100000000000000000000000C0073018083048
:1051200008600C601C601C601C600030001C0006E5
:1051300000018000800080008000000000008001ED
:10514000C003C00380010000000000000000000058
:10515000000000000000000000000000C007601810
:10516000103018200C2F8C4D864CC64CC64C664C0B
:1051700066446644662666266615CC1C0C400820EC
:1051800018303018C00700000000000000000000C8
:10519000000000000000000000000001C001C0018C
:1051A000C0014001600320032003200330061006E5
:1051B00010061006F80F080C080C080C0C0C04184C
:1051C000041806181F7C000000000000000000000A
:1051D000000000000000000000000000FE07181C96
:1051E000183818301830183018301818180CF807FC
:1051F00018181830182018601860186018601860A7
:1052000018301818FE0F0000000000000000000019
:10521000000000000000000000000000C02760380F
:10522000103018200C400C40040006000600060058
:10523000060006000600060006000C400C400C208C
:1052400018303018C0070000000000000000000007
:10525000000000000000000000000000FE03180E27
:105260001818183018301830186018601860186056
:10527000186018601860186018601830183018101E
:105280001818180EFE0300000000000000000000C7
:10529000000000000000000000000000FE3F183089
:1052A000182018601840180018081808180CF80F73
:1052B000180C180818081800180018001840184092
:1052C00018201830FE3F0000000000000000000021
:1052D000000000000000000000000000FE7F1870C9
:1052E000184018C018801800181018101818F81F47
:1052F00018181810181018001800180018001800B6
:10530000180018007E0000000000000000000000EF
:10531000000000000000000000000000C013701C2E
:10532000101018100C200C200400060006000600C7
:105330000600060006FC063006300C300C30183033
:1053400018303008C0070000000000000000000016
:105350000000000000000000000000003F7E0C186C
:105360000C180C180C180C180C180C180C180C181D
:10537000FC1F0C180C180C180C180C180C180C1816
:105380000C180C183F7E0000000000000000000018
:10539000000000000000000000000000F81F800175
:1053A00080018001800180018001800180018001F5
:1053B00080018001800180018001800180018001E5
:1053C00080018001F81F00000000000000000000C4
:1053D000000000000000000000000000E07F000668
:1053E000000600060006000600060006000600068D
:1053F000000600060006000600060006000600067D
:1054000000060006000600060E060E038E01FC00D4
:105410000000000000000000000000007E7C181862
:105420001808180418061802180198019801D801E4
:10543000B803380318071806180E180C181C18188B
:10544000183018307EFC0000000000000000000052
:105450000000000000000000000000007E001800B6
:10546000180018001800180018001800180018007C
:1054700018001800180018001800180018401840EC
:1054800018201830FE3F000000000000000000005F
:105490000000000000000000000000001FF81C38A1
:1054A0001C381C381C3C34343434343434367432B4
:1054B0006432643264326431C431C431C431C430C2
:1054C000C43084309FFC0000000000000000000099
:1054D0000000000000000000000000001F7C1C1005
:1054E0003C103410341074106410E410C410C41153
:1054F00084118413041304170416041E041C041CD2
:10550000041C04181F180000000000000000000028
:10551000000000000000000000000000C003300C8C
:10552000181808100C300C30066006600660066023
:10553000066006600660066006600C200C300810ED
:105540001818300CC003000000000000000000002C
:10555000000000000000000000000000FE0F18180E
:105560001830186018601860186018601830181823
:10557000F80F18001800180018001800180018007C
:10558000180018007E00000000000000000000006D
:10559000000000000000000000000000C003300C0C
:1055A00018180C100C300C200660066006600660AF
:1055B00006600660066006600660E4612C331C32FB
:1055C0001816300EC007004C007C003800000000A8
:1055D000000000000000000000000000FE07181C92
:1055E000183818301830183018301818180CF807F8
:1055F00098031803180718061806180E180C180C2C
:10560000181C18187E780000000000000000000040
:10561000000000000000000000000000E02730381B
:1056200018300C200C200C000C0018007800E0034F
:10563000800F001E00380070006004600460086085
:1056400018303818C80F00000000000000000000EB
:10565000000000000000000000000000FC3F8C2162
:10566000846182418241800180018001800180014A
:105670008001800180018001800180018001800122
:1056800080018001E0070000000000000000000031
:105690000000000000000000000000003F7C0C1033
:1056A0000C100C100C100C100C100C100C100C101A
:1056B0000C100C100C100C100C100C100C100C100A
:1056C00008083804E00300000000000000000000AB
:1056D0000000000000000000000000003EF818205C
:1056E000182018203010301030103010600860087A
:1056F0006008E00CC004C004C00480038003800381
:105700008003000100010000000000000000000014
:10571000000000000000000000000000DFF38661D0
:10572000862186218C210C218C238C138C138C13C5
:105730004C1358125816580E380E380E380E300CBE
:10574000100410041004000000000000000000001D
:105750000000000000000000000000007E3E18086D
:1057600038083004300470026002E001C001C0015A
:10577000800180034003400720062006100C100C17
:10578000081808183E7C000000000000000000001F
:105790000000000000000000000000007E7C1C10E3
:1057A000181018083008300C700460046002C00241
:1057B000C002C00180018001800180018001800160
:1057C00080018001E00700000000000000000000F0
:1057D000000000000000000000000000F83F181862
:1057E0000818040C040E0006000700038003800163
:1057F000C001C000E00060007000300038201820B8
:105800001C100C18FE1F000000000000000000002B
:10581000000000000000C03F400040004000400089
:105820004000400040004000400040004000400078
:105830004000400040004000400040004000400068
:1058400040004000400040004000C03F0000000019
:105850000000000000000000000008001800180010
:10586000100030002000600060004000C000800098
:105870008001800100010003000200060006000410
:10588000000C000800180018001000300020000074
:10589000000000000000FC03000200020002000201
:1058A00000020002000200020002000200020002E8
:1058B00000020002000200020002000200020002D8
:1058C00000020002000200020002FC0300000000CF
:1058D0000000000000008007C00620081010000033
:1058E00000000000000000000000000000000000B8
:1058F00000000000000000000000000000000000A8
:105900000000000000000000000000000000000097
:105910000000000000000000000000000000000087
:105920000000000000000000000000000000000077
:105930000000000000000000000000000000000067
:105940000000000000000000000000000000FFFF59
:105950000000000000007800C0000001000000000E
:105960000000000000000000000000000000000037
:105970000000000000000000000000000000000027
:105980000000000000000000000000000000000017
:105990000000000000000000000000000000000007
:1059A00000000000000000000000F00318060C0CCE
:1059B0000C0C000C800F700C1C0C0C0C060C060C54
:1059C000064C0C4FF83800000000000000000000FA
:1059D0000000000000000000000010001E00180081
:1059E00018001800180018001800180FD8183830C0
:1059F0003860186018601860186018601860182007
:105A000038307818C80700000000000000000000CF
:105A10000000000000000000000000000000000086
:105A200000000000000000000000C007700C181803
:105A300018180C180C000C000C000C000C2018207E
:105A400018103008C007000000000000000000002F
:105A5000000000000000000000000010001E001800
:105A600000180018001800180018E01B301C181847
:105A700018180C180C180C180C180C180C180818FE
:105A8000181C307AE009000000000000000000004F
:105A90000000000000000000000000000000000006
:105AA00000000000000000000000C007300C1818C3
:105AB00008100C300C30FC3F0C000C000C001820BF
:105AC00018107018C007000000000000000000005F
:105AD000000000000000000000000000003E80C345
